:020000040000FA
:0400000034EF0EF0DB
:10060000003F065B4F666D7D077F6F777C395E79B3
:1006100071554C4452535841425973566F6365208B
:100620005065726465752120202020202000566FBF
:1006300063652047616E686F75212020202020208F
:10064000004A6F677565204E6F76616D656E7465E3
:1006500021202000202020202020202020202020B9
:100660002020202000536575206E756D65726F2007
:100670006520200054656E7465206465206E6F7679
:100680006F210050726573732E205300546573748C
:10069000653A200041636572746F7500204572727F
:1006A0006F750000000E926E000E956E000E966E35
:1006B00020EE80F010EE2FF01B0EDBCFE3FFE806FC
:1006C000FCE261EC0CF0D6EC0FF0CDEC11F05FEC3D
:1006D0000EF082EC10F02AEC0FF0EBEC11F070EC65
:1006E00011F0C0EC11F0CDEC11F0E7EC11F0000EC0
:1006F0004C6E000E4B6E010E4D6E4E0E026E200EB5
:10070000016E83EC11F04B4A4C2A82EF05F0000E8B
:10071000106E000E0F6E000E126E000E116E14ECB5
:1007200010F0650E0F6E060E106E8AEC0EF0000EC5
:10073000106E010E0F6E000E126E000E116E14EC94
:1007400010F0D8905634D96E5734DA6E2F0ED92661
:10075000000EDA22DECF0FF0DDCF10F013EC0DF03B
:10076000000E106E010E0F6E000E126E070E116E4F
:1007700014EC10F06D50300F94EC11F0000E106E70
:10078000010E0F6E000E126E080E116E14EC10F0BA
:100790006B50300F94EC11F0000E106E010E0F6EC6
:1007A000000E126E090E116E14EC10F06950300F2D
:1007B00094EC11F0000E106E010E0F6E000E126E12
:1007C0000A0E116E14EC10F06750300F94EC11F01B
:1007D000000E106E010E0F6E000E126E0C0E116EDA
:1007E00014EC10F06550300F94EC11F0000E106E08
:1007F000010E0F6E000E126E0D0E116E14EC10F045
:100800006350300F94EC11F0000E106E010E0F6E5D
:10081000000E126E0E0E116E14EC10F06150300FBF
:1008200094EC11F0000E106E010E0F6E000E126EA1
:100830000F0E116E14EC10F05F50300F94EC11F0AD
:10084000020E4D6E30EF04F0380E836E9BEF05F014
:10085000180E836E9BEF05F0080E836E9BEF05F07C
:100860006FC02DF070C02EF02E50000AD8B43BEFB0
:1008700004F09BEF05F02D50010AD8B42CEF04F0E2
:10088000030AD8B428EF04F0010AD8B424EF04F026
:100890009BEF05F0DEEC0AF0E2EC11F04E5001188F
:1008A00009E14F500218D8B458EF04F05AEF04F0A1
:1008B00020EF05F0E2EC11F001C04EF002C04FF065
:1008C0004EA065EF04F067EF04F074EF04F06D5094
:1008D0006E10D8B46EEF04F071EF04F0010E72EFF9
:1008E00004F0000E6D6E6E6A4EA679EF04F07BEF99
:1008F00004F088EF04F06B506C10D8B482EF04F071
:1009000085EF04F0010E86EF04F0000E6B6E6C6A4A
:100910004EA48DEF04F08FEF04F09CEF04F06950CB
:100920006A10D8B496EF04F099EF04F0010E9AEF34
:1009300004F0000E696E6A6A4EA2A1EF04F0A3EF04
:1009400004F0B0EF04F067506810D8B4AAEF04F0D8
:10095000ADEF04F0010EAEEF04F0000E676E686AB2
:100960004EAAB5EF04F0B7EF04F0C4EF04F0655001
:100970006610D8B4BEEF04F0C1EF04F0010EC2EF70
:1009800004F0000E656E666A4EACC9EF04F0CBEF62
:1009900004F0D8EF04F063506410D8B4D2EF04F040
:1009A000D5EF04F0010ED6EF04F0000E636E646A1A
:1009B0004EAEDDEF04F0DFEF04F0ECEF04F0615039
:1009C0006210D8B4E6EF04F0E9EF04F0010EEAEFAC
:1009D00004F0000E616E626A4FA0F1EF04F0F3EFD5
:1009E00004F000EF05F05F506010D8B4FAEF04F0A7
:1009F000FDEF04F0010EFEEF04F0000E5F6E606A82
:100A00004FA205EF05F007EF05F01CEF05F05F0EB4
:100A1000176E000E186ED8905634D96E5734DA6EB1
:100A20002F0ED926000EDA22DECF19F0DDCF1AF014
:100A3000A3EC05F0564A572A010E4D6E9BEF05F0C8
:100A4000020E4D6E9BEF05F0030E0F6E71C009F0A4
:100A500072C00AF0000E0C6E0A0E0B6EBBEC0CF0AE
:100A60000950DCEC0DF0020E0F6E000E046E0A0E43
:100A7000036E71C001F072C002F0FFEC0BF001C018
:100A800009F002C00AF0000E0C6E0A0E0B6EBBECF1
:100A90000CF00950DCEC0DF0010E0F6E000E046E30
:100AA000640E036E71C001F072C002F0FFEC0BF037
:100AB00001C009F002C00AF0000E0C6E0A0E0B6EA7
:100AC000BBEC0CF00950DCEC0DF0000E0F6E030EC9
:100AD000046EE80E036E71C001F072C002F0FFEC0C
:100AE0000BF001C009F002C00AF0000E0C6E0A0EF5
:100AF0000B6EBBEC0CF00950DCEC0DF0000E4D6EF3
:100B00009BEF05F04D502D6E2E6A2E50000AD8B482
:100B10008CEF05F07EEF05F02D50000AD8B44AEFB7
:100B200004F0010AD8B487EF03F0030AD8B424EF25
:100B300005F07EEF05F073EC09F0DAEC11F07DEFD3
:100B400003F000EF00F094EC0FF0000E106E000EBA
:100B50000F6E000E126E000E116E14EC10F08C0E63
:100B60000F6E060E106E8AEC0EF017C0D9FF18C07B
:100B7000DAFFDECF1BF0DDCF1CF020EE0EF01750B9
:100B8000D9261850DA22DECF1DF0DDCF1EF0070E79
:100B9000D8901D361E36E82EC8EF05F020EE0CF07A
:100BA0001750D9261850DA22DECF1FF0DDCF20F003
:100BB000060ED8901F362036E82ED9EF05F020EE2D
:100BC0000AF01750D9261850DA22DECF21F0DDCFF7
:100BD00022F0050ED89021362236E82EEAEF05F0F5
:100BE00020EE08F01750D9261850DA22DECF23F075
:100BF000DDCF24F0233A243AF00E241623500F0BB5
:100C00002412F00E231620EE06F01750D9261850A5
:100C1000DA22DECF25F0DDCF26F0D8902536263635
:100C2000D89025362636D8902536263620EE04F084
:100C30001750D9261850DA22DECF27F0DDCF28F062
:100C4000D89027362836D8902736283620EE02F05E
:100C50001750D9261850DA22DECF29F0DDCF2AF03E
:100C6000D89029362A362750292628502A2225505E
:100C7000292626502A222350292624502A22215070
:100C8000292622502A221F50292620502A221D5070
:100C900029261E502A221B5029242B6E1C502A2044
:100CA0002C6E19502B1807E11A502C18D8A45BEFA2
:100CB00006F05DEF06F0BFEF06F0000E106E000EBE
:100CC0000F6E000E126E090E116E14EC10F0940EE1
:100CD0000F6E060E106E8AEC0EF0714A722A000E2C
:100CE000046E0A0E036E71C001F072C002F0FFECD8
:100CF0000BF001C009F002C00AF0000E0C6E0A0EE3
:100D00000B6EBBEC0CF00ABE8EEF06F00A5008E149
:100D10000904D8A08EEF06F090EF06F0BBEF06F0C6
:100D2000000E106E000E0F6E000E126E000E116E91
:100D300014EC10F02E0E0F6E060E106E8AEC0EF0F4
:100D40009468070E026ED00E016E4DEC0DF0000E91
:100D5000946E000E106E010E0F6E000E126E000EDD
:100D6000116E14EC10F0410E0F6E060E106E8AEC30
:100D70000EF0B9EF06F006EC0FF024EF07F0000ECE
:100D8000106E000E0F6E000E126E090E116E14EC36
:100D900010F09C0E0F6E060E106E8AEC0EF0180E00
:100DA0007126FC0E72226F06D8A07006030E046E28
:100DB000E80E036E71C001F072C002F0FFEC0BF0A0
:100DC00001C009F002C00AF0000E0C6E0A0E0B6E94
:100DD000BBEC0CF00ABEF7EF06F00A5006E109047E
:100DE000D8B0F5EF06F0F7EF06F0BBEF06F0000E17
:100DF000106E000E0F6E000E126E000E116E14ECCF
:100E000010F01B0E0F6E060E106E8AEC0EF094683A
:100E1000070E026ED00E016E4DEC0DF0000E106E3E
:100E2000010E0F6E000E126E000E116E14EC10F01B
:100E3000000E946E740E0F6E060E106E8AEC0EF09D
:100E4000000E836E22EF07F0120002BE33EF07F0B0
:100E5000025007E1080E015CD8B031EF07F033EF24
:100E600007F05DEF07F003500410D8B43AEF07F035
:100E70003CEF07F04CEF07F001C005F0010E066EE5
:100E8000052A45EF07F0D8900636052E43EF07F008
:100E9000065080124BEF08F001C005F0010E066EFF
:100EA000052A55EF07F0D8900636052E53EF07F0C8
:100EB0000650FF0A80164BEF08F002BE6BEF07F0FA
:100EC000025007E1100E015CD8B069EF07F06BEF3C
:100ED00007F099EF07F0F80E0126FF0E02220350EB
:100EE0000410D8B476EF07F078EF07F088EF07F03A
:100EF00001C005F0010E066E052A81EF07F0D890BB
:100F00000636052E7FEF07F0065081124BEF08F0F2
:100F100001C005F0010E066E052A91EF07F0D8908A
:100F20000636052E8FEF07F00650FF0A81164BEFAD
:100F300008F002BEA7EF07F0025007E1180E015CAF
:100F4000D8B0A5EF07F0A7EF07F0D5EF07F0F00E48
:100F50000126FF0E022203500410D8B4B2EF07F0AE
:100F6000B4EF07F0C4EF07F001C005F0010E066E04
:100F7000052ABDEF07F0D8900636052EBBEF07F027
:100F8000065082124BEF08F001C005F0010E066E0C
:100F9000052ACDEF07F0D8900636052ECBEF07F0E7
:100FA0000650FF0A82164BEF08F002BEE3EF07F08F
:100FB000025007E1200E015CD8B0E1EF07F0E3EF4B
:100FC00007F011EF08F0E80E0126FF0E0222035091
:100FD0000410D8B4EEEF07F0F0EF07F000EF08F0E0
:100FE00001C005F0010E066E052AF9EF07F0D89052
:100FF0000636052EF7EF07F0065083124BEF08F088
:1010000001C005F0010E066E052A09EF08F0D89020
:101010000636052E07EF08F00650FF0A83164BEF41
:1010200008F002BE1FEF08F0025007E1280E015C35
:10103000D8B01DEF08F01FEF08F04BEF08F0E00EFE
:101040000126FF0E022203500410D8B42AEF08F044
:101050002CEF08F03CEF08F001C005F0010E066E21
:10106000052A35EF08F0D8900636052E33EF08F044
:10107000065084124BEF08F001C005F0010E066E19
:10108000052A45EF08F0D8900636052E43EF08F004
:101090000650FF0A8416120002BE5AEF08F00250F2
:1010A00007E1080E015CD8B058EF08F05AEF08F0DD
:1010B00084EF08F003500410D8B461EF08F063EF38
:1010C00008F073EF08F001C005F0010E066E052A66
:1010D0006CEF08F0D8900636052E6AEF08F006503F
:1010E000921272EF09F001C005F0010E066E052A9A
:1010F0007CEF08F0D8900636052E7AEF08F00650FF
:10110000FF0A921672EF09F002BE92EF08F0025049
:1011100007E1100E015CD8B090EF08F092EF08F0F4
:10112000C0EF08F003500410D8B499EF08F09BEF1B
:1011300008F0ADEF08F001C005F0F80E0526010E2D
:10114000066E052AA6EF08F0D8900636052EA4EF05
:1011500008F00650931272EF09F001C005F0F80E86
:101160000526010E066E052AB8EF08F0D89006365F
:10117000052EB6EF08F00650FF0A931672EF09F03D
:1011800002BECEEF08F0025007E1180E015CD8B0A5
:10119000CCEF08F0CEEF08F0FCEF08F0035004109D
:1011A000D8B4D5EF08F0D7EF08F0E9EF08F001C0A8
:1011B00005F0F00E0526010E066E052AE2EF08F096
:1011C000D8900636052EE0EF08F00650941272EF24
:1011D00009F001C005F0F00E0526010E066E052A85
:1011E000F4EF08F0D8900636052EF2EF08F006501E
:1011F000FF0A941672EF09F002BE0AEF09F00250DE
:1012000007E1200E015CD8B008EF09F00AEF09F001
:1012100038EF09F003500410D8B411EF09F013EFC0
:1012200009F025EF09F001C005F0E80E0526010ED2
:10123000066E052A1EEF09F0D8900636052E1CEF23
:1012400009F00650951272EF09F001C005F0E80EA2
:101250000526010E066E052A30EF09F0D8900636F5
:10126000052E2EEF09F00650FF0A951672EF09F0D1
:1012700002BE46EF09F0025007E1280E015CD8B02B
:1012800044EF09F046EF09F072EF09F00350041043
:10129000D8B44DEF09F04FEF09F061EF09F001C04C
:1012A00005F0E00E0526010E066E052A5AEF09F03C
:1012B000D8900636052E58EF09F00650961272EFB8
:1012C00009F001C005F0E00E0526010E066E052AA4
:1012D0006CEF09F0D8900636052E6AEF09F006503B
:1012E000FF0A96161200000E026E180E016E000E16
:1012F000046E000E036E25EC07F0000E026E190E50
:10130000016E000E046E000E036E25EC07F0000E59
:10131000026E1A0E016E000E046E000E036E25ECB6
:1013200007F0000E026E1B0E016E000E046E000E22
:10133000036E25EC07F0000E086E000E076EDFEC62
:101340000EF00BEF0AF0010E5B24F66EF76A060E44
:10135000F7220800F550076E086ADFEC0EF0000E69
:10136000026E180E016E000E046E010E036E25EC67
:1013700007F0010E5C6E28EF0AF0010E5A24F66E9B
:10138000F76A060EF7220800F550076E086ADFECD0
:101390000EF0000E026E190E016E000E046E010EAC
:1013A000036E25EC07F0020E5C6E28EF0AF0010ECA
:1013B0005924F66EF76A060EF7220800F550076EFC
:1013C000086ADFEC0EF0000E026E1A0E016E000EBF
:1013D000046E010E036E25EC07F0030E5C6E28EF21
:1013E0000AF0010E5824F66EF76A060EF72208007E
:1013F000F550076E086ADFEC0EF0000E026E1B0E51
:10140000016E000E046E010E036E25EC07F0000E57
:101410005C6E28EF0AF05C500A6E0B6A0B50000AF3
:10142000D8B415EF0AF007EF0AF00A50000AD8B452
:10143000A3EF09F0010AD8B4BDEF09F0030AD8B44C
:10144000D7EF09F0010AD8B4F1EF09F007EF0AF07D
:10145000120002BE37EF0AF0025007E1080E015CED
:10146000D8B035EF0AF037EF0AF04BEF0AF001C0C1
:1014700003F0010E046E032A40EF0AF0D890043600
:10148000032E3EEF0AF004508014056E0550016EE5
:10149000026ADDEF0AF002BE59EF0AF0025007E1DE
:1014A000100E015CD8B057EF0AF059EF0AF06FEF59
:1014B0000AF001C003F0F80E0326010E046E032AA1
:1014C00064EF0AF0D8900436032E62EF0AF004505D
:1014D0008114056E0550016E026ADDEF0AF002BE4E
:1014E0007DEF0AF0025007E1180E015CD8B07BEFE7
:1014F0000AF07DEF0AF093EF0AF001C003F0F00E5E
:101500000326010E046E032A88EF0AF0D8900436F1
:10151000032E86EF0AF004508214056E0550016E0A
:10152000026ADDEF0AF002BEA1EF0AF0025007E105
:10153000200E015CD8B09FEF0AF0A1EF0AF0B7EFE0
:101540000AF001C003F0E80E0326010E046E032A20
:10155000ACEF0AF0D8900436032EAAEF0AF004503C
:101560008314056E0550016E026ADDEF0AF002BEBB
:10157000C5EF0AF0025007E1280E015CD8B0C3EFB6
:101580000AF0C5EF0AF0DBEF0AF001C003F0E00E4D
:101590000326010E046E032AD0EF0AF0D890043619
:1015A000032ECEEF0AF004508414056E0550016E30
:1015B000026ADDEF0AF0016802681200000E536E45
:1015C000000E526E000E0E6E000E0D6E0EBEF2EF8D
:1015D0000AF00E5009E1050E0D5CD8A0F2EF0AF0FA
:1015E000F4EF0AF0F6EF0AF057EF0BF00DC00AF037
:1015F000030E0A26010E0B6E000E0C6E0A2A04EF73
:101600000BF0D8900B360C360A2E01EF0BF00BC006
:1016100007F00CC008F0DFEC0EF0000E026E0A0EB0
:10162000016E29EC0AF001500210D8B41AEF0BF049
:101630001CEF0BF02FEF0BF00DC00AF0010E0B6E3C
:10164000000E0C6E0A2A28EF0BF0D8900B360C36E1
:101650000A2E25EF0BF00B5052120C505312000EB5
:10166000026E090E016E29EC0AF001500210D8B486
:101670003CEF0BF03EEF0BF053EF0BF00DC00AF018
:10168000050E0A26010E0B6E000E0C6E0A2A4CEF98
:101690000BF0D8900B360C360A2E49EF0BF00B509E
:1016A00052120C5053120D4A0E2AE6EF0AF0525015
:1016B000501807E153505118D8A461EF0BF063EFB5
:1016C0000BF066EF0BF05D066CEF0BF0010E5D6E3C
:1016D00052C050F053C051F05D50D8A472EF0BF0DF
:1016E00074EF0BF078EF0BF050C054F051C055F090
:1016F0001200000E0A6E08BE82EF0BF080EF0BF0B6
:101700008CEF0BF0081E071E061E056C000E06224D
:1017100007220822010E0A6E04BE93EF0BF091EF30
:101720000BF09DEF0BF0041E031E021E016C000E59
:10173000022203220422010E0A1A000E0B6E000E72
:101740000C6E000E0D6E000E0E6E0550061007108A
:101750000810D8B4AEEF0BF0B0EF0BF0E6EF0BF0E3
:10176000010E096EBAEF0BF0D89005360636073633
:101770000836092A08AEBFEF0BF0C1EF0BF0B4EF4B
:101780000BF0D8900B360C360D360E360550015C3A
:10179000065002580750035808500458D8A0D3EFF9
:1017A0000BF0D5EF0BF0DEEF0BF00550015E0650AD
:1017B000025A0750035A0850045A0B80D890083236
:1017C000073206320532092EC1EF0BF00A50D8B4A9
:1017D000ECEF0BF0EEEF0BF0F6EF0BF00E1E0D1E24
:1017E0000C1E0B6C000E0C220D220E220BC001F001
:1017F0000CC002F00DC003F00EC004F01200000E89
:10180000066E04BE08EF0CF006EF0CF00EEF0CF0C5
:10181000036C041ED8B0042A010E066E02BE15EF3A
:101820000CF013EF0CF01BEF0CF0016C021ED8B0A3
:10183000022A010E061A000E086E000E076E0350F3
:101840000410D8B426EF0CF028EF0CF050EF0CF099
:10185000010E056E30EF0CF0D89003360436052AE1
:1018600004AE35EF0CF037EF0CF02CEF0CF0D89005
:10187000073608360350015C04500258D8A043EFE5
:101880000CF045EF0CF04AEF0CF00350015E0450F1
:10189000025A0780D89004320332052E37EF0CF03D
:1018A0000650D8B456EF0CF058EF0CF05CEF0CF08B
:1018B000076C081ED8B0082A07C001F008C002F063
:1018C0001200000E026E1C0E016E000E046E000E61
:1018D000036E4CEC08F0000E026E1D0E016E000E41
:1018E000046E000E036E4CEC08F0F5EC0FF0000EE9
:1018F000026E0F0E016E9BEC10F0000E0B6E000ED0
:101900000A6E030E5DEC11F0000E026E050E016E04
:101910009BEC10F0000E0B6E000E0A6E030E5DECD9
:1019200011F0000E026EA00E016EF1EC11F0000E2F
:101930000B6E000E0A6E030E5DEC11F0000E026ECF
:10194000A00E016EF1EC11F0000E0B6E000E0A6E8F
:10195000020E5DEC11F0000E026E0A0E016E9BECA1
:1019600010F0280EA3EC11F00C0EA3EC11F0010EF8
:10197000A3EC11F01200000E0E6E0ABEC4EF0CF0C4
:10198000C2EF0CF0CAEF0CF0096C0A1ED8B00A2A9C
:10199000010E0E6E0CBED1EF0CF0CFEF0CF0D5EFB8
:1019A0000CF00B6C0C1ED8B00C2A0B500C10D8B4D9
:1019B000DCEF0CF0DEEF0CF002EF0DF0010E0D6E1F
:1019C000E6EF0CF0D8900B360C360D2A0CAEEBEF90
:1019D0000CF0EDEF0CF0E2EF0CF00B50095C0C504A
:1019E0000A58D8A0F6EF0CF0F8EF0CF0FCEF0CF072
:1019F0000B50095E0C500A5AD8900C320B320D2E47
:101A0000EDEF0CF00E50D8B408EF0DF00AEF0DF02A
:101A10000EEF0DF0096C0A1ED8B00A2A09C009F0B1
:101A20000AC00AF01200000E126E0A0E116E3FEF8D
:101A30000DF011C003F012C004F00FC001F010C08F
:101A400002F0FFEC0BF001C009F002C00AF0000E3A
:101A50000C6E0A0E0B6EBBEC0CF00950300F94ECC0
:101A600011F011C001F012C002F0000E046E0A0E57
:101A7000036EFFEC0BF001C011F002C012F012BEB9
:101A80004CEF0DF0125006E11104D8B04AEF0DF002
:101A90004CEF0DF019EF0DF01200000E046E000E69
:101AA000036E73EF0DF0000E056E280E05645BEFFC
:101AB0000DF05DEF0DF05FEF0DF071EF0DF0000E2A
:101AC000066E020E066467EF0DF069EF0DF06BEF26
:101AD0000DF06EEF0DF0062A61EF0DF0052A55EFBF
:101AE0000DF0034A042A0150035C02500458D8A0A8
:101AF0007CEF0DF07EEF0DF053EF0DF012000A6E4B
:101B00000A50D8B486EF0DF088EF0DF08AEF0DF093
:101B100071EC0FF0000E0B6E09BE91EF0DF094EF1B
:101B20000DF0010E95EF0DF0000E08EC0EF0D890C0
:101B300009360B2A070E0B64A0EF0DF0A2EF0DF093
:101B40008CEF0DF069EC10F00850D8B4AAEF0DF04E
:101B5000ACEF0DF0AEEF0DF0CAEC10F012000D6E10
:101B60000DC00CF00C3A0F0E0C160C50076E086AE4
:101B7000DFEC0EF0000E026E1D0E016E0AC003F0C7
:101B80000BC004F025EC07F0B5EC0FF00DC00CF025
:101B90000F0E0C160C50076E086ADFEC0EF0000EEC
:101BA000026E1D0E016E0AC003F00BC004F025EC9E
:101BB00007F0B5EC0FF01200106E0F50D8A4E3EF51
:101BC0000DF0E5EF0DF0E7EF0DF010C05BF00F0446
:101BD000D8A4EDEF0DF0EFEF0DF0F1EF0DF010C028
:101BE0005AF0020E0F18D8A4F8EF0DF0FAEF0DF02E
:101BF000FCEF0DF010C059F0030E0F18D8A403EF3E
:101C00000EF005EF0EF007EF0EF010C058F01200C6
:101C1000076E0750D8B40FEF0EF011EF0EF015EF6E
:101C20000EF031EC10F017EF0EF0E1EC10F0F0ECEC
:101C300011F04DEC10F00009D8B421EF0EF023EFB5
:101C40000EF019EF0EF00750D8B429EF0EF02BEF7D
:101C50000EF02DEF0EF031EC10F0F0EC11F0F6EC90
:101C600010F0F0EC11F01200640EF66E230EF76E19
:101C7000000EF86E00EE80F010EE1CF00900F5CFBB
:101C8000EEFFE550E150FAE1DC0EF66E230EF76E42
:101C9000000EF86E00EE6FF010EE04F00900F5CFC4
:101CA000EEFFE550E150FAE100EE50F01F0EEE6A53
:101CB000E806FDE1000EF86E000152EF03F0000EA1
:101CC000026E180E016E000E046E000E036E4CECD8
:101CD00008F0000E026E190E016E000E046E000E6A
:101CE000036E4CEC08F0000E026E1A0E016E000E30
:101CF000046E000E036E4CEC08F0000E026E1B0E1C
:101D0000016E000E046E000E036E4CEC08F0F5EC54
:101D10000FF01200000E146E000E136EA0EF0EF006
:101D200013500F24116E14501020126E11C0F6FFC4
:101D300012C0F7FF0800F55094EC11F0134A142A72
:101D400013500F24116E14501020126E11C0F6FFA4
:101D500012C0F7FF0800F5500009D8A4B2EF0EF04A
:101D6000B4EF0EF090EF0EF012000A6E000E0D6E42
:101D7000000E0C6E000E0B6E69EC10F0096E0D502B
:101D80000D2409100D6E0B4A0C2A0C5009E1080EA7
:101D90000B5CD8A0CEEF0EF0D0EF0EF0BCEF0EF043
:101DA0000A5008EC0EF00850D8B4D9EF0EF0DBEF73
:101DB0000EF0DDEF0EF0CAEC10F00D501200000E28
:101DC000026E080E016E000E046E000E036E25EC0E
:101DD00007F0000E096E000E026E1E0E016E800EE0
:101DE0000714036E046A25EC07F035EC11F0D89067
:101DF00007360836092A070E096401EF0FF003EFD2
:101E00000FF0EBEF0EF020EC11F01200000E106E50
:101E1000010E0F6E000E126E070E116E14EC10F014
:101E2000830E0F6E060E106E8AEC0EF082EC10F030
:101E3000DEEC0AF0E2EC11F001C015F002C016F081
:101E400015A825EF0FF027EF0FF016EF0FF094EC29
:101E50000FF01200000E026E000E016E000E046EF6
:101E6000010E036E4CEC08F0000E026E010E016EC6
:101E7000000E046E010E036E4CEC08F0000E026EB4
:101E8000020E016E000E046E010E036E4CEC08F0A3
:101E9000C2800C0EC16EAA0EC06E1200000E086E3B
:101EA000D00E096E010E7FEC0DF0000E086E0EC014
:101EB00009F0000E7FEC0DF0000E086ED10E096ED9
:101EC000010E7FEC0DF0010E086E010EB5EC0EF068
:101ED000106E1050116E126A11C00EF012C00FF089
:101EE00012005E50D8B477EF0FF079EF0FF089EF62
:101EF0000FF031EC10F0F0EC11F04DEC10F00009A7
:101F0000D8B485EF0FF087EF0FF07DEF0FF0F0EC16
:101F100011F031EC10F0E1EC10F0F0EC11F0F6EC17
:101F200010F0010E5E6E1200000E106E010E0F6EAC
:101F3000000E126E000E116E14EC10F0540E0F6EA7
:101F4000060E106E8AEC0EF0000E106E000E0F6E74
:101F5000000E126E000E116E14EC10F0540E0F6E87
:101F6000060E106E8AEC0EF01200000E026E1C0EB1
:101F7000016E000E046E010E036E25EC07F0000EDC
:101F8000026E050E016EF1EC11F0000E026E1C0ED9
:101F9000016E000E046E000E036E25EC07F0000EBD
:101FA000026E050E016EF1EC11F01200000E026ED1
:101FB000180E016E000E046E000E036E4CEC08F05D
:101FC000000E026E190E016E000E046E000E036EFE
:101FD0004CEC08F0000E026E1A0E016E000E046E3C
:101FE000000E036E4CEC08F01200000E026E1F0E85
:101FF000016E000E046E000E036E4CEC08F0000E35
:10200000026E080E016E000E046E000E036E4CECA4
:1020100008F0000E026E1E0E016E000E046E000E21
:10202000036E4CEC08F012000F501010D8A41BEFF8
:1020300010F01DEF10F022EF10F011500F0B800F79
:10204000A3EC11F00F041010D8A429EF10F02BEF1F
:1020500010F030EF10F011500F0BC00FA3EC11F087
:102060001200000E026E0C0E016E000E046E010EC8
:10207000036E4CEC08F0000E026E0C0E016E29ECA3
:102080000AF001500210D8A448EF10F04BEF10F006
:10209000010E4CEF10F0000E1200000E026E0B0E3F
:1020A000016E000E046E010E036E4CEC08F0000E83
:1020B000026E0B0E016E29EC0AF001500210D8A43A
:1020C00064EF10F067EF10F0010E68EF10F0000EF3
:1020D000120031EC10F0F0EC11F04DEC10F00009B2
:1020E000D8B475EF10F077EF10F06DEF10F031EC21
:1020F00010F0076EF0EC11F0F6EC10F0F0EC11F0CF
:1021000007501200F5EC0FF0000E026E0A0E016E81
:10211000000E046E010E036E4CEC08F0000E026E11
:10212000090E016E000E046E010E036E4CEC08F0F9
:102130000C0EC16E1200000E056E000E046EA3EFB1
:1021400010F0044A052A0150045C0550800A036E11
:102150000250800A0358D8A0B0EF10F0B2EF10F090
:10216000A1EF10F012000E6E000E086ED00E096E78
:10217000010E7FEC0DF0000E086E0CC009F0000E91
:102180007FEC0DF0010E086E0EC009F0000E7FEC22
:102190000DF01200E1EC10F0F0EC11F04DEC10F04D
:1021A0000009D8B4D6EF10F0D8EF10F0CEEF10F051
:1021B000F0EC11F031EC10F0F0EC11F0000E5E6E6E
:1021C0001200000E026E0C0E016E000E046E000E68
:1021D000036E4CEC08F0000E026E0C0E016E000E49
:1021E000046E000E036E25EC07F01200000E026E66
:1021F0000B0E016E000E046E000E036E4CEC08F028
:10220000000E026E0B0E016E000E046E000E036EC9
:1022100025EC07F01200000E026E0C0E016E000E8F
:10222000046E010E036E4CEC08F0000E026E0B0EF5
:10223000016E000E046E010E036E4CEC08F01200ED
:10224000000E026E1F0E016E000E046E010E036E74
:1022500025EC07F0000E026E1F0E016E000E046EDC
:10226000000E036E25EC07F01200000E026E080E41
:10227000016E000E046E010E036E25EC07F0000ED9
:10228000026E080E016E000E046E000E036E25EC49
:1022900007F01200480E016EE80E026E010E036E8A
:1022A000000E046E0FC005F010C006F0076A086A41
:1022B00079EC0BF00104CB6E12000C6E0CC007F031
:1022C000086ADFEC0EF0000E026E1D0E016E0AC0F1
:1022D00003F00BC004F025EC07F0B5EC0FF0120092
:1022E000000E0F6E000E0E6E4EEC0FF00EC013F0CF
:1022F0000FC014F0000E0D6E000E0C6E13507F0B0D
:10230000B3EC10F01200D8900134036E0234046E66
:10231000031E041E320E035E000E045A0450D76ED4
:1023200003C0D6FFF29412000E6E000E0B6E010E6B
:102330000A6E0E50AFEC0DF0000E026E500E016EE4
:10234000F1EC11F012000E6E000E0B6E000E0A6E14
:102350000E50AFEC0DF0000E026E020E016E9BEC03
:1023600010F012000E0005000700310019004C00AB
:10237000340062000200460040002D0059000800B1
:102380002C0EAC6E900EAB6E080EB86E000EB06EDA
:10239000220EAF6E948C948E12009492030ECA1289
:1023A000CA840C0EBA6E000E106E640E0F6E4AECEC
:1023B00011F01200F2A4DFEF11F0E1EF11F0DAEF0B
:1023C00011F0120054C001F055C002F01200080EC6
:1023D000D56ED58E12000BEC11F012000300B80B75
:0423E00012001200D5
:020000040020DA
:08000000FFFFFFFFFFFFFFFF00
:020000040030CA
:0E000000FF027100FF8380FF0FC00FE00F4072
:00000001FF
